:020000040800F2
:1000000000500020791100080D0300080F030008BC
:100010001103000813030008150300080000000086
:1000200000000000000000000000000017030008AE
:1000300019030008000000001B0300081D0300084E
:10004000C1110008C1110008C1110008C111000848
:10005000C1110008C1110008C1110008C111000838
:10006000C1110008C1110008C1110008C111000828
:10007000C1110008C1110008C1110008C111000818
:10008000C1110008C1110008C1110008C111000808
:10009000C1110008C1110008C1110008C1110008F8
:1000A000C1110008C1110008C1110008C1110008E8
:1000B000C1110008C1110008C1110008C1110008D8
:1000C000C1110008C1110008C1110008C1110008C8
:1000D000C1110008C1110008C1110008C1110008B8
:1000E000C1110008C1110008C11100080000000082
:1000F0000000000000000000000000000000000000
:0C01000000000000000000005FF808F1A3
:10010C0010B5054C237833B9044B13B10448AFF345
:10011C0000800123237010BD0C00002000000000A3
:10012C000C12000808B5034B1BB103490348AFF38D
:10013C00008008BD00000000100000200C12000818
:10014C00FEE7000000B591B00223069301220A924B
:10015C0010220B920D9300230E934FF460130F9308
:10016C0006A800F08BF908BB0F2301930221029122
:10017C00002303934FF480620492059301A800F0CE
:10018C0045FCB8B900F062FD0C4BA3FB00308009B4
:10019C0000F054FF042000F067FF002211464FF0DE
:1001AC00FF3000F005FF11B05DF804FB8621044818
:1001BC00FFF7C6FF94210248FFF7C2FFD34D621030
:1001CC004412000808B500F01FF9FFF7BBFF00F060
:1001DC0007F800F093FF00F081F8FEE7704700008D
:1001EC0030B587B0104B9A6942F004029A619B6952
:1001FC0003F004030193019B7823029301230393DF
:10020C000024049403230593084D02A9284600F00A
:10021C0023FD072302930394049402A9284600F0BB
:10022C001BFD07B030BD00BF0010024000080140AC
:10023C000F4B78225A6108211961996801F07F01EE
:10024C0001705A6110211961996801F07F014170A8
:10025C005A6120211961996801F07F0181705A61FE
:10026C0040211961996801F07F01C1705A61704792
:10027C000008014010B584B0174B93E8070004AB9D
:10028C0003E907006846FFF7D3FF0023FF2001E0D6
:10029C000133DBB2032B0AD804AA1A4412F8102C2F
:1002AC0002F007010729F3D010460423F0E7FF28DA
:1002BC000ED0002301E00133DBB20B2B09D804AACA
:1002CC001A4412F80C2C8242F5D11C460C23F2E78E
:1002DC000446204604B010BD2412000808B5FFF7F0
:1002EC00C9FF0B280AD0FF2806D00A2802D03030CC
:1002FC00C0B200E02A2008BD0020FCE72320FAE76A
:10030C007047FEE7FEE7FEE7FEE770477047704771
:10031C0008B500F08BF800F0C6FE08BD00B583B040
:10032C00244B9A6942F001029A619A6902F0010227
:10033C000092009ADA6942F08052DA61DB6903F0CC
:10034C0080530193019B032000F014FE0022114600
:10035C006FF00B0000F02CFE002211466FF00A002B
:10036C0000F026FE002211466FF0090000F020FE7E
:10037C00002211466FF0040000F01AFE0022114614
:10038C006FF0030000F014FE002211466FF0010024
:10039C0000F00EFE002211464FF0FF3000F008FE78
:1003AC00054A536823F0E06343F00073536003B0D5
:1003BC005DF804FB001002400000014010B504463B
:1003CC000E4B18784FF47A73B3FBF0F30C4A1068A9
:1003DC00B0FBF3F000F032FE68B90F2C01D901200C
:1003EC000AE0002221464FF0FF3000F0E1FD054B02
:1003FC001C60002000E0012010BD00BF00000020A8
:10040C00080000200400002008B5074A136843F0D8
:10041C0010031360032000F0ADFD0020FFF7CEFFAA
:10042C00FFF77CFF002008BD00200240034A116842
:10043C00034B1B780B441360704700BF280000204F
:10044C0000000020014B1868704700BF28000020F6
:10045C0082B0084B1B68084AA2FB03235B0A00FB13
:10046C0003F0019000BF019B5A1E0192002BF9D1A1
:10047C0002B0704708000020D34D621070B582B0F6
:10048C00044678B3236813B113F00F0F30D02368F0
:10049C0013F0010F46D063682BB1B3F5803F02D047
:1004AC00B3F5A02F2AD1AC4B5B6803F00C03042BE3
:1004BC002FD0A94B5B6803F00C03082B24D0636886
:1004CC00B3F5803F5BD0002B6FD103F1804303F574
:1004DC0004331A6822F480321A601A6822F48022DB
:1004EC001A6051E04FF4B8719C48FFF777FEC9E7EA
:1004FC0040F271119948FFF771FEC8E740F277118D
:10050C009648FFF76BFECEE7934B5B6813F4803F86
:10051C00D5D0914B1B6813F4003F03D06368002BBC
:10052C0000F02D82236813F0020F00F08A802369FB
:10053C00012B63D863691F2B66D8874B5B6813F05C
:10054C000C0F6CD0844B5B6803F00C03082B61D050
:10055C002369002B00F09A80814B01221A60FFF76F
:10056C0071FF05467C4B1B6813F0020F40F0858031
:10057C00FFF768FF401B0228F4D9032002E2764AF9
:10058C00136843F480331360636843B3FFF75AFF77
:10059C000546714B1B6813F4003FC3D1FFF752FFA4
:1005AC00401B6428F5D90320ECE1B3F5A02F09D04A
:1005BC00694B1A6822F480321A601A6822F480227D
:1005CC001A60E1E703F18043A3F53C331A6842F467
:1005DC0080221A601A6842F480321A60D4E7FFF75E
:1005EC0031FF05465C4B1B6813F4003F9AD0FFF7B4
:1005FC0029FF401B6428F5D90320C3E140F2AB115D
:10060C005648FFF7EBFD95E74FF4D6715348FFF7CB
:10061C00E5FD92E7504B5B6813F4803F98D14E4B4D
:10062C001B6813F0020F04D02369012B01D00120A9
:10063C00A8E1494A136823F0F803616943EAC1034E
:10064C001360236813F0080F3BD0A369012B2FD83C
:10065C00A369002B66D0434B01221A60FFF7F2FE10
:10066C0005463D4B5B6A13F0020F27D1FFF7EAFEFC
:10067C00401B0228F5D9032084E1374A136823F084
:10068C00F803616943EAC1031360DAE7344B0022D3
:10069C001A60FFF7D7FE05462F4B1B6813F0020FAD
:1006AC00CFD0FFF7CFFE401B0228F5D9032069E11C
:1006BC004FF4F6712948FFF791FDC9E70120FFF7C8
:1006CC00C7FE236813F0040F00F0A580E368012B2C
:1006DC0001D9052B38D1204BDB6913F0805F39D160
:1006EC001D4BDA6942F08052DA61DB6903F080530A
:1006FC000193019B01251C4B1B6813F4807F35D0A3
:10070C00E368012B46D0002B5CD103F1804303F549
:10071C0004331A6A22F001021A621A6A22F00402E5
:10072C001A623CE00F4B00221A60FFF78BFE054665
:10073C00094B5B6A13F0020FC3D0FFF783FE401B1B
:10074C000228F5D903201DE140F21B210348FFF7D5
:10075C0045FDC0E70025CEE700100240501200080E
:10076C00000042428004424200700040874A1368F5
:10077C0043F480731360FFF765FE0646834B1B68DA
:10078C0013F4807FBCD1FFF75DFE801B6428F5D984
:10079C000320F7E07E4A136A43F001031362E36817
:1007AC0033B3FFF74FFE0646794B1B6A13F0020F6B
:1007BC002FD1FFF747FE801B41F288339842F3D9C3
:1007CC000320DFE0052B09D0714B1A6A22F00102DD
:1007DC001A621A6A22F004021A62E0E76C4B1A6A77
:1007EC0042F004021A621A6A42F001021A62D6E757
:1007FC00FFF728FE0646664B1B6A13F0020F08D063
:10080C00FFF720FE801B41F288339842F3D9032076
:10081C00B8E0002D53D1E369022B56D8E369002BC5
:10082C0000F0AF805A4A526802F00C02082A00F01D
:10083C00AB80022B40F08F80236A13B1B3F5803F5D
:10084C0049D1636A4BB3B3F5802F26D0B3F5002F93
:10085C0023D0B3F5402F20D0B3F5801F1DD0B3F5B6
:10086C00A01F1AD0B3F5C01F17D0B3F5E01F14D0DA
:10087C00B3F5001F11D0B3F5101F0ED0B3F5201F28
:10088C000BD0B3F5301F08D0B3F5401F05D0B3F52E
:10089C00501F02D0B3F5601F23D13E4B00221A60CB
:1008AC00FFF7D0FD05463A4B1B6813F0007F1ED0B6
:1008BC00FFF7C8FD401B0228F5D9032062E0344A3B
:1008CC00D36923F08053D361A5E740F2B9213248B4
:1008DC00FFF784FCA2E740F2C2212F48FFF77EFC11
:1008EC00AFE740F2C3212C48FFF778FCD5E7236A29
:1008FC00B3F5803F1AD026494B6823F47413226A4F
:10090C00606A024313434B60224B01221A60FFF7CB
:10091C0099FD04461E4B1B6813F0007F19D1FFF79D
:10092C0091FD001B0228F5D903202BE0A36813B11D
:10093C00B3F5003F07D1164A536823F40033A1687E
:10094C000B435360D7E740F2D9211348FFF746FC1D
:10095C00F1E7002016E00F4B00221A60FFF772FD42
:10096C0004460B4B1B6813F0007F06D0FFF76AFDA3
:10097C00001B0228F5D9032004E0002002E001202E
:10098C0000E0002002B070BD0120FBE700700040C9
:10099C0000100240600042425012000810B487B0B0
:1009AC00164C94E80F000DF1180C0CE90F00238A7B
:1009BC00ADF80430124B5B6803F00C02082A1AD114
:1009CC00C3F38342624412F8102C13F4803F05D118
:1009DC000C4800FB02F007B010BC7047084B5B687A
:1009EC00C3F34043634413F8143C074800FB02F084
:1009FC00B0FBF3F0EFE70448EDE700BF301200085E
:100A0C000010024000093D0000127A0070B50D463E
:100A1C000446C0B1236813F00F0F1AD0022D1ED854
:100A2C00854B1B6803F00703AB421ED2824A136846
:100A3C0023F007032B431360136803F00703AB4247
:100A4C0013D0012070BD40F22E317C48FFF7C6FB5D
:100A5C00E0E740F22F317948FFF7C0FBDEE74FF4B7
:100A6C004C717648FFF7BAFBDAE7236813F0020FF4
:100A7C0018D0A3687BB1802B0DD0902B0BD0A02B62
:100A8C0009D0B02B07D0C02B05D0D02B03D0E02B36
:100A9C0001D0F02B34D16A4A536823F0F003A168DB
:100AAC000B435360236813F0010F61D06368022B72
:100ABC002CD86368012B2FD0022B34D0604A1268DB
:100ACC0012F0020F00F0B6805D494A6822F0030272
:100ADC0013434B60FFF7B6FC06466368012B29D025
:100AEC00022B36D0564B5B6813F00C0F40D0FFF73F
:100AFC00A9FC801B41F288339842F3D90320A1E76B
:100B0C0040F249314D48FFF769FBC4E74FF454718B
:100B1C004A48FFF763FBCCE7494A126812F4003FDE
:100B2C00D2D101208EE7464A126812F0007FCBD159
:100B3C00012087E7424B5B6803F00C03042B17D0B2
:100B4C00FFF780FC801B41F288339842F2D90320D6
:100B5C0078E73B4B5B6803F00C03082B08D0FFF7DE
:100B6C0071FC801B41F288339842F2D9032069E76B
:100B7C00314B1B6803F00703AB420CD92E4A1368A8
:100B8C0023F007032B431360136803F00703AB42F6
:100B9C0001D0012056E7236813F0040F14D0E3684A
:100BAC005BB1B3F5806F08D0B3F5A06F05D0B3F58A
:100BBC00C06F02D0B3F5E06F30D1214A536823F4F3
:100BCC00E063E1680B435360236813F0080F15D002
:100BDC0023695BB1B3F5806F08D0B3F5A06F05D076
:100BEC00B3F5C06F02D0B3F5E06F1DD1144A536852
:100BFC0023F46053216943EAC1035360FFF7CEFE2F
:100C0C000F4B5B68C3F303130E4AD35CD8400E4BF7
:100C1C0018600020FFF7D2FB002013E74FF4697136
:100C2C000648FFF7DBFAC8E740F2AB310348FFF7A1
:100C3C00D5FADBE7012005E700200240501200083E
:100C4C0000100240F812000808000020014B186840
:100C5C00704700BF080000202DE9F04383B08046A8
:100C6C000F46B64B984213D003F5806398420FD0D1
:100C7C0003F5806398420BD003F58063984207D04C
:100C8C0003F58063984203D0CD21AD48FFF7A6FA57
:100C9C003B689AB212B11B0C1B041BB1CE21A848A5
:100CAC00FFF79CFA7B68012B1ED9112B1CD0022B51
:100CBC001AD0122B18D0A34A934215D002F58012E9
:100CCC00934211D002F5801293420DD0A2F5F81286
:100CDC00934209D002F58012934205D002F580129E
:100CEC00934201D0032B03D14FF000094E46D8E0BC
:100CFC00CF219348FFF772FAF6E7002B5ED0012B59
:100D0C0005D1FB68013B022B65D8D7F80C90FF2C62
:100D1C0000F296804046FF2C00F29580B2000368EA
:100D2C000F21914023EA010309FA02F213430360F5
:100D3C007B6813F0805F00F0B380834B9A6942F0BC
:100D4C0001029A619B6903F001030193019BB208B4
:100D5C00911C7E4B53F8210006F0030399000F23DE
:100D6C008B4020EA0300754B984572D003F58063E5
:100D7C00984500F0CD8003F58063984500F0CA805B
:100D8C0003F58063984562D0042363E0704A934274
:100D9C0014D00BD96F4A934210D002F58032934293
:100DAC000CD0A2F580129342B1D107E0A2F58012CB
:100DBC00934203D002F580329342A8D1BB68022B38
:100DCC002DD8BB68002B38D0012B2ED0C8F814506E
:100DDC004FF008099BE7E5215948FFF7FFF994E725
:100DEC00EC215748FFF7FAF98EE0FB68013B022B28
:100DFC0003D8FB6803F1080989E7F3215048FFF792
:100E0C00EDF9F6E7FB68013B022B03D8FB6803F115
:100E1C000C097CE7FA214A48FFF7E0F9F6E740F2C3
:100E2C0007114748FFF7DAF9CBE7C8F810504FF035
:100E3C0008096CE74FF0000969E74FF0040966E711
:100E4C0008F1040067E7A6F10802920067E70323A4
:100E5C0000E000238B40034302323C4941F822302E
:100E6C007B6813F4803F57D03B4A136823431360CD
:100E7C007B6813F4003F55D0374A536823435360C3
:100E8C007B6813F4801F53D0334A936823439360D9
:100E9C007B6813F4001F61D02F4AD3681C43D460C5
:100EAC0001360F2E60D80125B5403C682C40A54278
:100EBC00F6D1224B984513D003F5806398450FD09B
:100ECC0003F5806398450BD003F58063984507D0F4
:100EDC0003F58063984503D0DD211948FFF77EF9AF
:100EEC007B68122B8ED03FF651AF022B3FF47DAFB7
:100EFC007FF603AF032B9DD0112B7FF408AFFB685B
:100F0C00013B022B3FF66CAFFB6803F10409FEE6D4
:100F1C0001239FE702239DE70F4A136823EA04038A
:100F2C001360A5E70C4A536823EA04035360A7E750
:100F3C00094A936823EA04039360A9E70008014077
:100F4C00881200080000111000100240000001403F
:100F5C00000021100000311000040140044AD36845
:100F6C0023EA0404D4609BE703B0BDE8F08300BF20
:100F7C000004014010B50446C31E042B0FD80A4AC6
:100F8C00D36823F4E0631B041B0C240204F4E06418
:100F9C00234343F0BF6343F40033D36010BDA2215D
:100FAC000248FFF71BF9EAE700ED00E0C012000869
:100FBC0070B505460C4616460F2A25D80F2C28D896
:100FCC001B4BDB68C3F30223C3F10702042A28BFBF
:100FDC000422191D062921D9033B4FF0FF3101FAD8
:100FEC0002F224EA02049C4001FA03F326EA030607
:100FFC003443002D14DB2401E4B205F1604505F502
:10100C00614585F8004370BDBA210A48FFF7E6F840
:10101C00D4E7BB210748FFF7E1F8D1E70023DCE771
:10102C0005F00F052401E4B2034B5C55EBE700BF60
:10103C0000ED00E0C012000814ED00E00138B0F142
:10104C00807F0AD2064B5860064AF02182F82310A2
:10105C000020986007221A6070470120704700BF7B
:10106C0010E000E000ED00E010B50446042800D0CC
:10107C0038B9042C0BD0094A136823F0040313600D
:10108C0010BD40F2D9110648FFF7A8F8F1E7034A62
:10109C00136843F004031360F2E700BF10E000E0B4
:1010AC00C0120008704708B5FFF7FCFF08BD000030
:1010BC000F4B1A6842F001021A6059680D4A0A4037
:1010CC005A601A6822F0847222F480321A601A680C
:1010DC0022F480221A605A6822F4FE025A604FF4FD
:1010EC001F029A60044B4FF000629A60704700BF79
:1010FC00001002400000FFF800ED00E000B589B0E0
:10110C00184B9A6942F010029A619A6902F0100227
:10111C000092009A9A6942F020029A619A6902F050
:10112C0020020192019A9A6942F004029A619A692A
:10113C0002F004020292029A9A6942F008029A6141
:10114C009B6903F008030393039B0C230493002374
:10115C0005930223069304A90348FFF77DFD09B00C
:10116C005DF804FB0010024000080140002103E080
:10117C000B4B5B58435004310A480B4B42189A42B4
:10118C00F6D30A4A02E0002342F8043B084B9A4289
:10119C00F9D3FFF78DFF00F00FF8FFF713F8704746
:1011AC0010130008000000200C0000200C00002090
:1011BC002C000020FEE7000070B500250C4E0D4CF5
:1011CC00A41BA410A54209D100F01AF800250A4E60
:1011DC000A4CA41BA410A54205D170BD56F82530AD
:1011EC0098470135EEE756F8253098470135F2E778
:1011FC000813000808130008081300080C13000853
:10120C00F8B500BFF8BC08BC9E467047F8B500BFE7
:08121C00F8BC08BC9E467047B7
:10122400450E0D0B1615132625234643020304050C
:10123400060708090A0B0C0D0E0F1010010200001E
:101244005372632F6D61696E2E6300004472697678
:101254006572732F53544D3332463178785F484169
:101264004C5F4472697665722F5372632F73746D89
:101274003332663178785F68616C5F7263632E63C2
:1012840000000000447269766572732F53544D3325
:1012940032463178785F48414C5F447269766572B2
:1012A4002F5372632F73746D3332663178785F68AD
:1012B400616C5F6770696F2E630000004472697629
:1012C4006572732F53544D3332463178785F4841F9
:1012D4004C5F4472697665722F5372632F73746D19
:1012E4003332663178785F68616C5F636F727465FE
:1012F400782E6300000000000000000001020304D7
:0413040006070809C7
:0413080031010008A7
:04130C000D010008C7
:0C131000010000001000000000A24A04D0
:040000050800117965
:00000001FF
